:100000000C943E000C94D0010C94D0010C94D001BF
:100010000C94D0010C94D0010C94D0010C94D0011C
:100020000C94D0010C94D0010C94D0010C94D0010C
:100030000C94D0010C94D0010C94D0010C94D001FC
:100040000C94D0010C94D0010C94D0010C94D001EC
:100050000C94D001A500BD00D500ED0099009900D9
:1000600099009900990099009900990099009900C8
:1000700099009900B100C900E100F90011241FBEE8
:10008000CFE5D8E0DEBFCDBF0E9479000C944800D8
:04009000F894FFCF12
:10009400534D41525420484F4D45004155544F4D06
:1000A4004154494F4E0042756C62204F4E004275D8
:1000B4006C62204F4646004D6F746F72204F4E00A5
:1000C4004D6F746F72204F4646004C4544204F4E8E
:1000D400004C4544204F46460042757A7A657220AA
:0E00E4004F4E0042757A7A6572204F464600F4
:1000F2008FE087BB18BA0E947D0160E875E280E05C
:1001020090E00E94AB0181E00E94050160E080E086
:100112000E94BC0164E970E080E00E94950160E009
:1001220081E00E94BC016FE970E080E00E949501CD
:100132000E94CC0190E0FC01F197E431F105C0F797
:10014200E65DFF4F0C94C60188B3816088BB81E0F5
:100152000E9405016AEA70E080E00E949501E8CF02
:1001620088B38E7F88BB81E00E94050162EB70E05C
:1001720080E00E949501DCCF88B3826088BB81E079
:100182000E9405016BEB70E080E00E949501D0CFE8
:1001920088B38D7F88BB81E00E94050164EC70E02A
:1001A20080E00E949501C4CF88B3846088BB81E05F
:1001B2000E9405016EEC70E080E00E949501B8CFCC
:1001C20088B38B7F88BB81E00E94050165ED70E0FA
:1001D20080E00E949501ACCF88B3886088BB81E043
:1001E2000E9405016DED70E080E00E949501A0CFB4
:1001F20088B3877F88BB81E00E94050167EE70E0CB
:0802020080E00E94950194CFF9
:10020A0092B39F70282F207F922B92BB92B39B7F31
:10021A0092BB92B3986092BBEFECF7E03197F1F79B
:10022A0000C0000092B3977F92BB22B3F0E18F9F88
:10023A00C0011124922F9F70892B82BB82B38860E0
:10024A0082BB8FEC97E00197F1F700C0000082B300
:06025A00877F82BB0895BE
:1002600092B39F70282F207F922B92BB92B3946001
:1002700092BB92B3986092BBEFECF7E03197F1F745
:1002800000C0000092B3977F92BB22B3F0E18F9F32
:10029000C0011124922F9F70892B82BB82B388608A
:1002A00082BB8FEC97E00197F1F700C0000082B3AA
:0602B000877F82BB089568
:1002B600A1E21A2EAA1BBB1BFD010DC0AA1FBB1F64
:1002C600EE1FFF1FA217B307E407F50720F0A21BD6
:1002D600B30BE40BF50B661F771F881F991F1A9443
:1002E60069F760957095809590959B01AC01BD016D
:0402F600CF01089597
:1002FA008CEF81BB8FE39CE90197F1F700C0000006
:10030A0082E00E94050188E20E9405018CE00E94B9
:10031A00050186E00E94050181E00E940501089519
:10032A00CF92DF92EF926B01E82E06C09FEFC91AB7
:10033A00D90AE90A0E943001F6018491E7FC80811A
:0C034A008111F4CFEF90DF90CF90089568
:100356009B01AC0160E271EA87E090E00E945B01DC
:100366002150310930BD29B988E18AB986E880BDB6
:020376000895E8
:10037800811103C080E8860F02C080EC860F0E94BE
:0403880005010895CE
:0C038C00EE0FFF1F0590F491E02D099486
:080398005F9BFECF8CB10895BC
:0403A0000C940000B9
:00000001FF
